S02B00002F686F6D652F6261696C65792F346232352F5765617468657273746174696F6E2F6275696C642F6B51
S113000000060020D1040000F9040000F9040000F7
S113001000000000000000000000000000000000DC
S1130020000000000000000000000000F9040000CF
S11300300000000000000000F9040000F9040000C2
S1130040F9040000F9040000F9040000F9040000B8
S1130050F9040000F9040000F9040000F9040000A8
S1130060E50D0000F9040000EF0D0000F9040000A4
S1130070F9040000F9040000F9040000F904000088
S1130080F9040000F9040000F9040000F904000078
S11300907106000089060000F9040000F90400005C
S11300A0F9040000F9040000F9040000F904000058
S11300B0F9040000F9040000F9040000F904000048
S1130400FFFFFFFFFFFFFFFFFFFFFFFFFE3DFFFFBB
S113041010B5064C2378002B07D1054B002B02D0D6
S1130420044800E000BF0123237010BD90FFFF1FAC
S113043000000000B4370000044B10B5002B03D0BB
S11304400349044800E000BF10BDC046000000009E
S113045094FFFF1FB4370000164B002B00D1144B40
S11304609D46402292029A1A924600218B460F46DC
S11304701348144A121A03F030F90F4B002B00D022
S113048098470E4B002B00D0984700200021040011
S11304900D000D48002802D00C4800E000BF03F016
S11304A0EFF82000290000F0D5F903F0D3F8C04696
S11304B0000008000006002000000000000000000A
S11304C090FFFF1F48020020000000000000000011
S11304D072B606480649074A02600A6000F08CFCBE
S11304E000F0CCFC62B6FFF7B7FF000080E100E04B
S11304F080E200E0FFFFFFFF00480047F90400002E
S11305000023C25C0133002AFBD1581E704700004F
S113051002B4714649084900095C49008E4402BC92
S11305207047C04603B47146490840004900095A5F
S113053049008E4403BC7047002243088B4274D3A5
S113054003098B425FD3030A8B4244D3030B8B42D0
S113055028D3030C8B420DD3FF22090212BA030CD9
S11305608B4202D31212090265D0030B8B4219D3BA
S113057000E0090AC30B8B4201D3CB03C01A5241DA
S1130580830B8B4201D38B03C01A5241430B8B4222
S113059001D34B03C01A5241030B8B4201D30B030B
S11305A0C01A5241C30A8B4201D3CB02C01A524132
S11305B0830A8B4201D38B02C01A5241430A8B42F5
S11305C001D34B02C01A5241030A8B4201D30B02DE
S11305D0C01A5241CDD2C3098B4201D3CB01C01AF8
S11305E0524183098B4201D38B01C01A5241430902
S11305F08B4201D34B01C01A524103098B4201D3F0
S11306000B01C01A5241C3088B4201D3CB00C01A5C
S1130610524183088B4201D38B00C01A52414308D4
S11306208B4201D34B00C01A5241411A00D20146F9
S1130630524110467047FFE701B5002000F006F86C
S113064002BDC0460029F7D076E770477047C04620
S1130650837802209842804140427047437A0020C8
S1130660013B012B03D901200B7801330B70704738
S113067010B5002002F0C0FC002803D000210800BF
S113068002F0AEFC10BD0000024A1368013313608F
S11306907047C046ACFFFF1F37B5002001F0D0FD06
S11306A0C02300240D4A9B0013600D4A0D4D1360B6
S11306B00D4A200013600D4B2C716C71AC711A68DB
S11306C0FA239B0053430A492B6002F0E3FC290000
S11306D001AA200002F020FD37BDC0461890145432
S11306E01C901454E0FFFF1F00A0145414FEFF1FBD
S11306F0B0FFFF1F00230120384A10B51360384AA9
S113070038491360384A0133FF331360374A1360A2
S1130710374A1360374A1360374A1360374A136005
S1130720374A13600A780240364855D00360364A87
S1130730364813600022026035480260354A13606F
S1130740354A1360354A1360354A1360354A1360DD
S1130750354A13600B78DB0703D50220FF3001F024
S1130760EDFF8520400001F0F7FF092001F0F4FFC0
S11307700C2001F0F1FF052001F0EEFF082001F04C
S1130780EBFF0620FF3001F0E7FF0E20FF3001F001
S1130790E3FF8320400001F0DFFF0820FF3001F079
S11307A0DBFF0C20FF3001F0C9FF8120400001F085
S11307B0C5FF8220400001F0CFFF0420FF3001F08C
S11307C0CBFF072001F0C8FF062001F0C5FF802001
S11307D0400001F0C1FF10BD0260A8E70C90145462
S11307E01090145410FEFF1F1490145418901454B5
S11307F01C90145420901454249014543090145485
S113080000A0145404A0145408A014540CA01454AC
S113081010A0145414A0145418A014541CA014545C
S113082028A014542CA0145434A0145410B5092036
S113083001F092FF10BD10B50C2001F08DFF10BD2A
S113084010B5FFF7F3FFFFF7F6FF8320400001F038
S113085075FF10BDF0B5A7B015AC0722002120002C
S113086002F03BFF7E4A01251A92032205AB1D9339
S113087007AB1E9309AB20930DAB22930FAB2393CD
S113088011AB249313AB0BAF03A9259300201AAB30
S11308901A711C910493219725701F9401F0C8FCD0
S11308A0280001F0C5FC80226E4B12021A6001F090
S11308B047FB002300951A001900180000F062FAA3
S11308C06949002000F052FAFA20400001F019FBB7
S11308D06649002000F04AFAFA20400001F011FBBA
S11308E06349002000F042FAFA200026400001F09B
S11308F008FB604A2B0002215F4801F045FB2900F8
S1130900280001F04DFB002002F0B4FA5B4B17A95C
S11309100E818E7230001793189502F0D7FA2A00D0
S1130920310003A802F0D9FE69462A20159B0993D9
S1130930A2880A85A27909180A7069460322063832
S113094009180A700B93A2886946BA80A279023802
S1130950BA7105223A7002270593A2880A83A27904
S11309600F758A760793A2880A84A27909180A70F7
S1130970694604220A770D93A28818300A87A2795F
S113098009180A7069460822063809180A70694667
S11309900F93A2880C3009180A806946A279C019FD
S11309A009180A706A4609210638121811706A4635
S11309B01193A3880C30121813806A46A379C019C6
S11309C0121813706A460A230638121813704C2240
S11309D06B469B181E7004AA2B001DA801F07AFC1C
S11309E03100380000F074F82549264801F08CFEE7
S11309F0FFF780FE0820FF3001F0A0FEFA2040003F
S1130A0001F07FFA0820FF3001F0A6FEFA20400032
S1130A1001F077FA0820FF3001F090FEFA20400040
S1130A2001F06FFA0820FF3001F096FEFA20400032
S1130A3001F067FA0820FF3001F080FEFA20400040
S1130A4001F05FFA0820FF3001F086FE01F018F98A
S1130A50FFF7F6FEFA20800001F053FAFEE7C046E5
S1130A605D0600003C020020003700001B37000038
S1130A702137000000FEFF1F18FFFF1FE0070100E1
S1130A8028FEFF1F18FEFF1F1FB5040001A9002048
S1130A9002F044FA694601A802F07EF9009B01A91C
S1130AA01C196846009402F0FFF8012201A90020F5
S1130AB002F060FA1FBD00000022034B1A6080227E
S1130AC0024B1206DA67704700A01C5804E100E0EC
S1130AD010B50A230C0008281CD8FFF719FD051DC2
S1130AE02A3F54676C6F5C0001F08CFD05230128DC
S1130AF010D0FFF7E1FF2000FFF7C6FF0021080038
S1130B0001F00AFC01210400002001F049FA002C44
S1130B1022D00923180010BD01F074FD062301281A
S1130B20F8D0FFF7C9FF2000FFF7AEFF0021012036
S1130B30E6E701F067FD08230128EBD001F0A6FAEF
S1130B40002803D00121002001F02AFA002102200C
S1130B5001F0E2FB0028DCD10023DBE701F052FDC9
S1130B6007230028D6D0FFF7A7FF2000FFF78CFF4C
S1130B700021032001F0D0FB040001F043FD01211A
S1130B800028C4D1C1E7FFF797FF2000FFF77CFFDF
S1130B9000210420EEE70021082001F0BDFB00281D
S1130BA0B7D10121080001F0FBF9D5E700210520A8
S1130BB001F0B2FBADE700210620F9E70021072090
S1130BC0F6E70369C268934201D880681B18013BA9
S1130BD0981A7047F7B5C36814000193019A8368A3
S1130BE005009E1A43680F009818A64206D92200F1
S1130BF002F06AFD019B1C19EC60F7BD3200A41BD6
S1130C0002F062FDB9192200686802F05DFDF3E7A5
S1130C100023F7B506001700C568019100933369F6
S1130C20B4689D421FD2013B5B1B641BBC4200D9CC
S1130C303C009C4200D91C00736822005819019999
S1130C4002F042FD009B2D191B190093019B3F1BD1
S1130C501B190193B368AB4200D10025F560002F46
S1130C60DDD10098FEBD1B19DDE70000022310B59D
S1130C70104C114A23616361104BA261E36180232C
S1130C80A2640F4A5B002362E26400231022A36281
S1130C906362E362A3656365E3652265E01D094958
S1130CA002F023FD0849200002F01FFD2023A37158
S1130CB010BDC046E8FFFF1F283700007000002069
S1130CC0600000203137000035370000F8B5160009
S1130CD01822451C55434243164B0F005D199B18BF
S1130CE0DC6A012C12D0002C03D0022C1BD000246F
S1130CF00AE02800FFF765FF864205D83200390074
S1130D002800FFF767FF34002000F8BD2800FFF734
S1130D1058FF3400864200D904002200390028001C
S1130D20FFF758FFF0E732002800FFF771FF0400D7
S1130D30EAE7C046E8FFFF1FF8B50B4B05001B7838
S1130D400E001700002B01D1FFF790FFEFF3108482
S1130D50012181F310883A0031002800FFF7B6FF23
S1130D6084F31088F8BDC046E8FFFF1F70B5050086
S1130D7008000C00FFF7C4FB210002002800FFF765
S1130D80DBFF70BDF7B5164C0193237805000F0007
S1130D901600002B01D1FFF769FF2369AB421CD970
S1130DA0EFF31082012181F31088002D0CD0182359
S1130DB0691C59436B43675061184E600199E318ED
S1130DC0196200219962596218235D43089B6419D2
S1130DD0E36282F310880020FEBD01204042FBE75D
S1130DE0E8FFFF1F10B5002001F0C4FC10BD10B5D2
S1130DF0002002F01DF910BD082310B5164A9178A1
S1130E00194202D091780B4393708821002222204A
S1130E10124B49015A501249124C08708020124951
S1130E204002585019681148014019601959104876
S1130E300840C02189040143195180210D4B1A72C5
S1130E4019767F391A7059700B490A700C329979E6
S1130E501142FCD110BDC04600D0074000700440D0
S1130E6000E007400410000044100000FFFFF3FFFF
S1130E70FFFFFFF0004006400050064013491448AD
S1130E8010B5814205D00022124B9B089B009A4268
S1130E9010D1114B114A9960002311491148521A7B
S1130EA09A420BD1002318000F49104A521A9A4251
S1130EB008D110BD84588C500432E8E7CC5CC4548B
S1130EC00133EDE7CC1820700133F0E70000000097
S1130ED0000000000000000000ED00E06C3900009C
S1130EE0DC37000000FEFF1F90FFFF1F48020020B8
S1130EF037B50E24FF340500200001F01FFC0A2042
S1130F0000F0FFFF200001F027FC0C2001F024FC7E
S1130F10FA23084A9B00157000210193012308005D
S1130F200093054B02F054F90500200001F006FC83
S1130F3028003EBD90010020700100207FB503AE63
S1130F40308002AD212029800192FFF7D1FF707813
S1130F50FFF7CEFF3078FFF7CBFF687801ACFFF7DF
S1130F60C7FF2878FFF7C4FF2078FFF7C1FFA078F8
S1130F70FFF7BEFF6078FFF7BBFF7FBDF7B50E003C
S1130F800400170022200193E4B2FFF7B1FF300000
S1130F90FFF7AEFFA6193800FFF7AAFFE419F0B275
S1130FA001ADFFF7A5FFE0B2FFF7A2FF2878FFF736
S1130FB09FFFA878FFF79CFF6878FFF799FF0D2043
S1130FC0FFF796FF0D20FFF793FF0D20FFF790FF2B
S1130FD0F7BD37B5040401AB1880C5B2240E212037
S1130FE00091FFF785FF2000FFF782FF07342800F8
S1130FF0FFF77EFFE0B2FFF77BFF2800FFF778FFE3
S11310006B461878FFF774FF6B469878FFF770FF0C
S11310106B465878FFF76CFF37BD37B5050401AB55
S113102018802D0EC4B221200091FFF761FF280023
S1131030FFF75EFF2000FFF75BFF07342800FFF790
S113104057FFE0B2FFF754FF6B461878FFF750FFE5
S11310506B469878FFF74CFF6B465878FFF748FFCC
S113106037BD1FB50193062817D803ABFFF750FA15
S1131070040E0D171B1A1E000131597009321A7023
S113108001990398FFF7A5FF07E009315970013270
S11310901A7001990398FFF7C0FF05B000BD013134
S11310A05970ECE7093159700A32F1E7013159708E
S11310B01232E4E737B50C0015000193342800D14F
S11310C069E023D8312800D16FE006D82D2800D15B
S11310D0AEE0302800D191E037BD322840D033282B
S11310E0FAD1019B0320FFF7BCFF019B2A002100DA
S11310F00220FFF7B6FF2A0021000020019BFFF722
S1131100B0FF019B2A00210005203DE0372868D06C
S113111018D8352856D03628DED1019B0020FFF799
S1131120A0FF2A0021000120019BFFF79AFF019BE9
S11311302A0021000320FFF794FF019B2A002100CD
S11311400420DCE7392864D054D36C28C4D1019B33
S11311500120FFF786FF019B2A00210004202EE0D6
S1131160019B0320FFF77DFF019B2A002100022041
S1131170FFF777FF019B2A0021000020FFF771FF92
S11311802A0021000420019BFFF76BFF019B2A002A
S11311902100062013E0019B0020FFF762FF019B62
S11311A02A0021000120FFF75CFF019B2A00210097
S11311B00220FFF756FF2A0021000520019BFFF7BC
S11311C050FF89E7019B0020FFF74BFF2A00210015
S11311D00120019BFFF745FF019B2A00210003200A
S11311E08DE7019B0320FFF73CFF019B2A002100B0
S11311F0022084E7019B0020FFF733FF019B2A00B4
S113120021000120FFF72DFF019B2A00210002206D
S11312108BE7019B0020FFF724FF019B2A0021009C
S11312200120FFF71EFF019B2A0021000220D1E7C5
S1131230019B0020C3E700001FB5D02203AB1201BD
S11312401A805D229A70202201ABFF321A80054A6F
S113125002AB1A80039A02990198FFF76FFE05B05A
S113126000BDC0461F5F000037B56C466170227038
S11312702F2816D002D82D2809D037BD592819D0C7
S11312807C28FAD101A8D3184170037003E001A8A7
S1131290CB1843700270069A01990098FFF74EFE2E
S11312A0EBE7DCB2631E141B01A8CB1801344370B6
S11312B00470F0E7013BD8B201AD09181218697047
S11312C02A70E8E7F0B585B00E00150003AC03936F
S11312D0422833D053282FD16B4622888F1E1A8080
S11312E0A278FFB29A7039002A0003232438FFF74A
S11312F0BBFF6B462188AA1C1980A178D2B29970D1
S11313002F2003233100FFF7AFFF6B4622883900FB
S11313101A80A27859209A702A000323FFF7A4FFA9
S11313206B462188023D1980A178EAB299700323A3
S113133031005920FFF798FF05B0F0BD6B462188B6
S113134003321980A178D2B299702F20042331007E
S1131350FFF78AFF6B462188371D1980A178FFB2F9
S1131360EA1D9970D2B2042339002F20FFF77CFFC5
S11313706B4621882A1D1980A178D2B29970592010
S113138004233100FFF770FF6B46228839001A806E
S1131390A2789A7004232A00CBE7F0B53A3885B0D6
S11313A00C00150003931F2800D921E2FFF7BAF8B7
S11313B04002200220022002200220022002890092
S11313C020022002480134002002200224013E01B0
S11313D02002200220026300BA0120020C02200233
S11313E02202E6002000C4002002990120027701B5
S11313F06B4603AE32882D201A80B27803349A707B
S113140006232A00FFF730FFE1B26B4632881A80C8
S1131410B2789A700623AFE06B4603AE32887C2024
S11314201A80B2789A702A000623FFF71DFF6B46D4
S1131430328821001A80B2782D209A702A00042361
S1131440FFF712FF6B463188EA1C1980B178D2B2DB
S113145099702D20032321000635FFF705FFEAB21A
S11314606B4631882D201980B178997004232100AE
S1131470FFF7FAFEBCE16B4603AE32887C201A808B
S1131480B2789A7006232A00FFF7EEFE6B46328884
S113149021001A80B27859209A7003232A00FFF79A
S11314A0E3FE6B463088AA1C1880B078A11C9870A3
S11314B00323D2B2C9B22F20FFF7D6FE211DC9B231
S11314C0A3E76B4603AE971C3288FFB21A80B2784A
S11314D07C209A7004233A00FFF7C6FE6B463288DC
S11314E0611D1A80B278C9B29A707C2004233A0034
S11314F0FFF7BAFE6B4631882A1D1980B178D2B243
S113150099702D2021000523FFF7AEFE6B4632882B
S113151021001A80B2782F209A7003233A00FFF733
S1131520A3FE6B46328803341A80B278E1B29A7013
S113153003232A0059209BE76B4603AE32887C20A4
S11315401A80B2789A7005232A00FFF78DFE6B4645
S11315503088AA1D1880B078611C9870D2B2C9B2C4
S113156002232D20FFF780FE6B463288211D1A804E
S1131570B278C9B29A7005232A003BE06B4603AEE9
S113158032884F1C1A80B278FFB29A703900032354
S11315902A002D20FFF768FE6B463188EA1C19806B
S11315A0B178D2B299702D2002233900FFF75CFE86
S11315B06B463188AA1D1980B178D2B299702D205A
S11315C003232100FFF750FE6B4631886A1C198003
S11315D0B178D2B299707C2001232100FFF744FE38
S11315E06B4630882A1D1880B078211D987001231D
S11315F0D2B2C9B27C203BE76B4603AE32887C2072
S11316001A80B2789A7006232A00FFF72DFE6B46E3
S11316103288211D1A80B278C9B29A707C202A00BF
S11316200623FFF721FE2A1DD2B219E76B4603AA4F
S11316301188198092789A7006232A002100D9E72C
S11316406B4603AE32887C201A80B278671C9A708D
S11316502A000623FFF708FE6B463288FFB21A8081
S1131660B27839009A7059202A000323FFF7FCFD51
S11316706B463188AA1D1980B178D2B299702F2097
S113168003233900FFF7F0FD6B46308802351880DC
S1131690B07803349870EAB2E1B20223AAE76B4649
S11316A003AE328859201A80B2789A702A00042333
S11316B0FFF7DAFD6B463288A11D1A80B278C9B2F1
S11316C09A702F202A000423FFF7CEFD6B46308842
S11316D003351880B07803349870EAB2E1B203237A
S11316E088E76B4603AE32887C201A80B2789A7001
S11316F006232A00FFF7B8FD6B463188AA1C19801F
S1131700B178D2B29970592003232100FFF7ACFDC0
S11317106B463188AA1D1980B178D2B2997003231F
S11317202100C8E66B4603AE32887C201A80B2786A
S11317309A702A000623FFF797FD6B463288611DD5
S11317401A80B278C9B29A707C202A000623FFF767
S11317508BFD6B46328821001A80B2782D209A7056
S11317602A000123FFF780FD6B463088AA1D1880EC
S1131770B078211D9870D2B2C9B201232D20FFF791
S113178073FD6B463288611C1A80B278C9B29A70B4
S113179059202A000223FFF767FD6B463288023581
S11317A01A80B278A11CEDB29A70C9B202232A0041
S11317B05920FFF759FD6B46328803341A80B278FA
S11317C0E1B29A700223B4E66B4603AA11887C2026
S11317D01980927821009A7002342A000623023577
S11317E0FFF742FDEAB2E1B2039B5320FFF76AFD23
S11317F005B0F0BD6B4603AE32887C201A80B27807
S11318009A702A000623FFF72FFDAA1CA11CD2B24E
S1131810C9B2039B5320FFF755FD6B46308803354F
S11318201880B07801349870EAB2E1B2042381E6FA
S11318306B4603AE318801321980B178D2B2997007
S11318407C2000232100FFF70FFD6B46318805350E
S11318501980B178EAB299700023EFE6F0B587B049
S11318600C00150005AE0593502800D1EBE004D818
S1131870482800D10CE107B0F0BD542800D180E025
S11318805728F8D16B4632887C201A80B2782E0013
S11318909A7013232A00FFF7E7FC631CDBB2029360
S11318A023004F3B0836DBB2029FF6B203936B462C
S11318B005AA11882F201980927839009A70022382
S11318C03200FFF7D1FC0237039B033EFFB2F6B2AE
S11318D09F42ECD123002F0009330937DBB2FFB25A
S11318E003936B4605AE328859201A80B2789A70F9
S11318F002993A000223FFF7B7FC029B039A0233D2
S1131900DBB203370293FFB29342EAD16B46210064
S113191032880A311A80B278C9B29A707C201323B3
S11319202A00FFF7A1FC21000B31C9B233682A0059
S11319304220FFF7C7FC6B462700328815371A8010
S1131940B278FFB29A70390013232A007C20FFF783
S11319508BFC6B462A0031880A321980B178D2B2E6
S113196099702D2005233900FFF77EFC6B463288E1
S11319701A341A80B278E1B29A707C2013232A00B8
S11319805EE033680220FFF7F9FA631DDBB20293CD
S1131990AB1CDBB203936B4632887C201A80B2788E
S11319A0E71D9A70039A0E230299FFF75DFC6B46BC
S11319B03288FFB21A80B27839009A702D2004233D
S11319C02A00FFF751FC2B001233DBB204936B4661
S11319D0328839001A80B2782D209A70049A032331
S11319E0FFF742FC6B4632882F201A80B2780B3402
S11319F09A70039A03230299FFF736FC6B463288E8
S1131A00E4B21A80B27821009A70592003232A0084
S1131A10FFF72AFC6B462A00318810321980B1780E
S1131A20D2B29970029903235920FFF71DFC6B462B
S1131A30328821001A80B2782F209A700323049AE6
S1131A40FFF712FC17E7961DF6B2A71D059B32009F
S1131A50FFB24D20FFF7A1FC059B2A00390044206A
S1131A60FFF79BFC059B320039004420FFF795FCEF
S1131A7021000B31059B3200C9B241201234FFF71B
S1131A808CFCE1B2059B32005220FFF786FCF2E6A3
S1131A90023201313368D2B2C9B20220FFF76EFAC2
S1131AA02A0005340C32D2B2E1B233680220FFF7C7
S1131AB065FAE0E6F0B50D2785B06F4A01AB1A80F0
S1131AC09F7006000D00FFF7B7FB0122019B110078
S1131AD05420FFF762FC019B012209214520FFF7F6
S1131AE05CFC019B01220F214D20FFF756FC019B5A
S1131AF0012215215020FFF750FC019B01221B21DC
S1131B004520FFF74AFC019B012221215220FFF7C7
S1131B1044FC019B012227214120FFF73EFC019B4D
S1131B2001222D215420FFF738FC019B012235218D
S1131B305520FFF732FC019B01223B215220FFF785
S1131B402CFC019B012241214520FFF726FC019B2F
S1131B50012249213A20FFF720FC337802AC2D2BD7
S1131B600BD15D2203AB1F705A709F7087239B00BB
S1131B70238003990298FFF72CFA70783F4F30289E
S1131B8006D00D212780A170029B0A22FFF792FA4A
S1131B9027800D27A770B078029B0A221921FFF72E
S1131BA089FA029B1B2225210220FFF7E7F93079ED
S1131BB0029B0A222B21FFF77DFA029B0A223C2179
S1131BC05420FFF74BFE019B222201215020FFF7F6
S1131BD0E4FB019B222207215220FFF7DEFB019B3D
S1131BE0222239004520FFF7D8FB019B2222132132
S1131BF05320FFF7D2FB019B222219215320FFF728
S1131C00CCFB019B22221F215520FFF7C6FB019B21
S1131C10222225215220FFF7C0FB019B22222B21E7
S1131C204520FFF7BAFB019B222232213A20FFF71D
S1131C30B4FB2B78312B05D1029B2C2201216C2083
S1131C40FFF738FA6878029B2C220421FFF732FA56
S1131C50A878029B2C221021FFF72CFAE878029B2B
S1131C602C221C21FFF726FA029B32223A21502013
S1131C70FFF7F4FD05B0F0BD5D0D00000D5D000043
S1131C80C02310B58024554A9B001360544A640055
S1131C901360FEF701FD534B20001C60524B1C6087
S1131CA0524B1C6000F04AFD642000F02AF9200029
S1131CB000F052FD642000F024F9200000F03EFD05
S1131CC0642000F01EF9AE20FFF712F9A020FFF700
S1131CD00FF97220FFF70CF9A120FFF709F9002092
S1131CE0FFF706F9A220FFF703F90020FFF700F938
S1131CF0A420FFF7FDF8A820FFF7FAF83F20FFF72C
S1131D00F7F8AD20FFF7F4F88E20FFF7F1F8B020D4
S1131D10FFF7EEF80B20FFF7EBF8B120FFF7E8F838
S1131D203120FFF7E5F8B320FFF7E2F8F020FFF7E2
S1131D30DFF88A20FFF7DCF86420FFF7D9F88B205E
S1131D40FFF7D6F87820FFF7D3F88A20FFF7D0F80A
S1131D506420FFF7CDF8BB20FFF7CAF83A20FFF75D
S1131D60C7F8BE20FFF7C4F83E20FFF7C1F887206C
S1131D70FFF7BEF80620FFF7BBF88120FFF7B8F89D
S1131D809120FFF7B5F88220FFF7B2F85020FFF753
S1131D90AFF88320FFF7ACF87D20FFF7A9F8AF2058
S1131DA0FFF7A6F82620FFF7A3F80120FFF7A0F815
S1131DB02520FFF79DF80020FFF79AF80020FFF791
S1131DC097F85F20FFF794F83F20FFF791F8084950
S1131DD00848FFF76FFE002010BDC0462090145441
S1131DE02490145434A014543090145400A0145467
S1131DF03C3700004137000000234170436003700A
S1131E0083601800704710B5437804000120FF2B4D
S1131E1008D000F027FA63780133DBB2637000F076
S1131E2015FA002010BD70B504000D0000F01AFA78
S1131E30E1682943E16000F009FA002070BD000068
S1131E4000220A4B9A641A0040329A631A00303214
S1131E509A621A0020329A611A0010329A60044A77
S1131E601360044B9B60DB607047C046B4010020E4
S1131E70B0010020040200200022024B1A601868FE
S1131E8080B270470C007C5070B5437804000D009C
S1131E90002B0BD0002500F0E5F96378013BDBB2A1
S1131EA06370257000F0D2F9280070BD022000296B
S1131EB0FBD02378002B17D0FFF7DEFF6368A268FE
S1131EC0834204D8C01A824206D30320EDE7C01A25
S1131ED080235B02C018F6E700F0C4F900232370E6
S1131EE000F0B4F90220E0E74B1CEED000F0BAF9A0
S1131EF00123237000F0AAF9FFF7BEFFA56060601C
S1131F00E3E770B50500FFF7B7FF8026040076020B
S1131F10FFF7B2FF844203D8001B8542F8D270BD9C
S1131F20331B1818F9E710B5012801D100F09AF90C
S1131F3010BD10B5012801D100F088F910BD0000D2
S1131F4010B5FFF77DFF01230020084A08491360FC
S1131F50084A094C1060086004212160074C216084
S1131F6007490B6007490860136010BD38800450AE
S1131F700000845000000450000004510400045187
S1131F8004000C500000045310B5044C206021716F
S1131F900020A2602373637310BDC04614020020A6
S1131FA0F0B587B004AB384E0190029118715971A5
S1131FB033790427834226D90027337B3D0073738A
S1131FC0012304AA937103932F4C237BAB421DD8A6
S1131FD0002F02D0029B012B45D10120FFF7A3FF64
S1131FE00C20019B002558433368181800F0AAF808
S1131FF0019B012073710226FFF79BFF04AB9E71C6
S1132000237BAB4219D8380007B0F0BDA268AB00FF
S11320109B58002B0ED01A7903990A420AD01A68E9
S1132020996805A89047002804D0029B657305278A
S1132030002B18D00135EDB2C6E7A268AB009B585F
S1132040002B0DD01A7932420AD01A68996805A873
S11320509047002804D0029B65730627002BD2D03A
S11320600135EDB2CCE7002304AA9371013DEDB232
S1132070FF2DC8D0B268AB009B58002BF6D01A686D
S1132080996805A89047F1E714020020014B58799C
S11320907047C0461402002013B5040000202178C4
S11320A00190022920D0032922D0012925D12279A7
S11320B001AB144800F08CFD002814D1A3795A1EFA
S11320C09341114ADB01137063785A1E93410F4AFE
S11320D05B001370A2780E4B1A70E2780D4B1A70E5
S11320E062790D4B1A7016BD227901AB0100E0E74D
S11320F001A9044800F0AEFDDEE701A9014800F0A3
S11321004BFDD9E7004006401840865300408650F6
S1132110004006500140065018401650F82143096B
S1132120074A9B009B180905C205114080225205ED
S11321300A4313431F2210401E3A82401A6070471C
S113214028800440072373B5009300230400104D36
S11321501A000121280000F05DFF2000FFF79CFF1A
S1132160637A217A0093002328001A0000F052FFBA
S1132170E379084A9B041360074BA17A1D68280081
S113218000F084FD2800E17A00F087FD002076BD90
S11321900070044000700C599837000010B50548D1
S11321A000F0BCFC044B1968C9B20131FEF7C4F954
S11321B010BDC0460040064044801C5E10B5FFF7C9
S11321C0EDFF10BD10B5054800F0A8FC044B1968DC
S11321D0C9B20131FEF7B0F910BDC0460040064057
S11321E04480145810B5FFF7EDFF10BD0B4B1B686E
S11321F0DBB2022B0CD0032B0DD0002B01D000201E
S11322007047074A1068802212029042F7D1F7E71C
S1132210044B1868F4E7FA208000F1E700700C59C9
S11322203C0200204002002010B5FFF7DFFF10BD84
S113223010B5024B185CFFF771FF10BD4737000063
S113224010B57620FFF76AFF10BD0000044A13683A
S1132250002B04D0013B1360002B00D162B6704701
S11322602402002072B6024A1368013313607047D7
S11322702402002010B5064C064801F03BF904285E
S113228001D1002010BD013C002CF5D10320F9E759
S1132290EA03000000E0074010B50B4B0B490A7835
S11322A0002A07D0084C0A4801F024F9012806D175
S11322B0002003E0013B002BF1D1032010BD013CC1
S11322C0002CF0D1F9E7C046EA03000002D0075120
S11322D000E00740F7B507000E0015000193012048
S11322E0002F15D0002913D0FFF71DFE094C102232
S11322F00021200001F0F1F927602671002D03D0A0
S1132300019BA560237363730120FFF712FE002075
S1132310FEBDC04628020020F0B5B44C8DB0039039
S11323200291237B01206373FFF7FDFD2379039A58
S1132330934206D80120FFF7FCFD022738000DB0B8
S1132340F0BD039A23689200D35809AC1D78019319
S1132350029B2A002372039B2370019B6360022368
S11323609A430492012A01D0052D0AD10121A048E3
S113237001F012F8002807D10120FFF7DAFD012748
S1132380DCE70321072DF2D80123002763723C0008
S11323900593964E337BA34231D80120FFF7C9FD44
S11323A0944800F0DFFB049B012B4CD10138C0B2F0
S11323B0022804D8FFF716FF8F4B984236D9029BA8
S11323C0012B01D0002F00D106270120FFF7ABFD20
S11323D00023012609AD6B72013CE4B2FF2C00D14D
S11323E0ABE0824BA2009B68D358002BF4D01A793F
S11323F03242F1D01A68996828009047ECE7B26835
S1132400A3009B58002B0ED01A7905990A420AD0D2
S11324101A68996809A89047002804D0029B74732D
S11324200427012BB9D10134E4B2B2E7FFF7B6FEB9
S1132430724EB042C3D8FFF7C5FEB042BFD8FFF713
S1132440BDFEB042BBD8029B012B00D0C9E00A2DCF
S113245000D9C4E02800FEF75BF8060A0D1E8CA222
S11324607F862F747A00002207AB1A702FE007AB27
S11324700322FAE75E4801F03DF8012808D0002164
S11324805B4800F099FFFFF707FF071E00D055E7F0
S113249007AB0122E9E7564801F02CF8042808D0DC
S11324A00221534800F088FFFFF7E4FE071E00D026
S11324B044E707AB0422D8E7072207AB1A700022CF
S11324C05A70019AD2789A70019A1279DA702B00B4
S11324D0083B07A9022B05D8019B5B798B71019BF3
S11324E09B79CB71019B5B78002B0AD0012D08D915
S11324F0019B02229878424B002853D0186902436A
S11325001A613B4800F07CFF002800D00327002D0F
S11325104CD1FFF7C1FE071E00D00FE700270120B2
S1132520FFF701FD039B314D0024AB73022309AE79
S1132530737201932B7BA3423DD80120FFF7F9FC72
S1132540FCE6072207AB1A70063A5A70BFE7072267
S113255007AB1A70043AF8E7022207AB1A70013A83
S11325601A715A71B3E70222012107AB1A7019716B
S1132570F7E70222002407AB1A701D48013A1A71CA
S11325805C7100F0B7FF0128A1D02100184800F0C9
S113259013FFFFF781FE0700A04298D0CEE607ABF9
S11325A0052262E7186990431861AAE7012DB6D1A4
S11325B0FFF760FEAFE7AA68A3009B58002B0BD07F
S11325C01A7901990A4207D01A689968300090472D
S11325D0002801D005276C730134E4B2AAE703276D
S11325E0ACE6002F00D0F0E631E7C0462802002018
S11325F000E007400040064040420F0080841E0077
S113260000ED00E010B5064800F074FF0023012837
S113261003D00133042800D00A33180010BDC0468B
S113262000E00740F7B5FF2403681C4A1D0A254053
S11326301C40AB009F581A4A06009B58280001937F
S1132640FFF7F6FD00222100380000F05BFF019B3C
S1132650A400E418842332795B05234352001A60F2
S1132660802372795B0523431A609023B2795B055A
S1132670234312011A60F2790A4B1C4313042360AA
S1132680002A0AD0084B5B57002B06D01F221340A8
S11326901E3A9A401300054A1360F7BD9C370000A8
S11326A0A437000000001818AC37000000E100E077
S11326B0F8B5FF2405000368114A180A20401C409D
S11326C083009F580F4A9E58FFF7B2FD380021003F
S11326D0012200F017FF6A682100380000F021FF92
S11326E088232A7AA400A4195B05234392001A6064
S11326F098235B051C436B7A9B012360F8BDC0469D
S11327009C370000A437000070B50C00002807D1E6
S1132710002C0FD170BD05000835FFF783FF28009A
S113272003680133F7D1F3E7250020000C35FFF7E8
S1132730BFFF2C0023680133F6D1EBE7FF22030A25
S1132740134004499B0059580123104083404B60B7
S11327507047C0469C370000FF22030A1340044917
S11327609B0059580123104083408B607047C0463A
S11327709C370000084B8200D258942310B50232D3
S11327805B0513431B78002B02D000F037F810BD13
S113279000F08AF8FBE7C0464C37000002008023B3
S11327A00C325B0513431A78002AFCD00171704780
S11327B010B5104B8000C458E37C002B05D0237C5B
S11327C0052B02D0237C042B0BD10B4B18589823D8
S11327D0821C5B05134300221A7000F0AAFE012339
S11327E06374A37C002B03D020001830FFF70BFB8D
S11327F010BDC046380200204C370000244B70B591
S11328008400E5588423EA1C5B05134302221A70F2
S11328109023A9185B050B431B78EA78DBB2920678
S11328201DD5942252050A431278002A17D0194A5A
S1132830A458012B14D1EA781A4204D00433237427
S1132840FFF7B6FF0BE0E368013BE360002BF7D032
S1132850A36828005A1CA2605978FFF79FFF70BD37
S11328606268013A6260002A06D08C235B05012A63
S11328700AD00B43002209E0FFF79AFF23685A1C91
S113288022602A791A70EAE708220B431A70F5E7E6
S11328904C37000038020020C31C84204005184334
S11328A00223037070470000902149050A00F0B527
S11328B08B4B07008000C55889B0EB1C0193EB7863
S11328C0EE78DBB20793F3B20693AB1D1A4394463A
S11328D012789826D2B20592942252051A43814C5A
S11328E0127876050459A81CD2B2334302900843E7
S11328F001921A780178D2B2C9B204910199039075
S1132900002931D0059900290DD0102362462800F2
S11329101370FFF7C1FF236B002B53D00121626BAF
S1132920F8B298474EE0002A1ED0402228001A70C0
S1132930FFF7B2FF23002C331B78002B02D1029A3D
S113294016433370236B002B03D0F8B2626B8021E3
S11329509847E37D002B04D0200080211830FFF736
S113296062FA0A2323702DE0069B28009E1101239E
S11329701E40FFF791FF012207990B11134223D048
S11329809023EA1C5B05134310221A70002E0ED00C
S1132990EB785B07DB0F45D1039A1370236B002B95
S11329A003D0F8B2626B042198472B790AE008231C
S11329B023702C342278002A04D1982302995B05D1
S11329C00B431A7009B0F0BD002EE1D1049B012B1A
S11329D051D1EB78049A13422ED0039B1E702B79AD
S11329E023002C331B78002B08D1019B002B05D12D
S11329F09823029A5B051343019A1A70236B002BE8
S1132A0003D0F8B2626B08219847A37D002B04D051
S1132A10200008211830FFF706FA00236360E36002
S1132A202375CFE71023039A1370236B002B03D075
S1132A30F8B2626B022198476368002B4ED02800DD
S1132A408022E3680C30520519780243107800287C
S1132A50FCD029710133E3606368013B6360636800
S1132A60002BAFD1E3602375236B002BAAD0F8B2FF
S1132A70626B102155E72B79A268DBB2002A2BD0B8
S1132A8022691370236901332361A368013BA360A6
S1132A90A368002B96D1019B002B12D123002C3369
S1132AA01B78002B05D19823029A5B051343019AE6
S1132AB01A70E37D002B04D0200020211830FFF78A
S1132AC0B2F9002363752361236B002B00D179E7EE
S1132AD0F8B2626B202124E7072343E7062341E78A
S1132AE04C370000380200208422520502430300C0
S1132AF00020127882420CD0802001334005034329
S1132B001878013843425841024B40421840024B66
S1132B10C0187047808D5B0080841E0010B50D4B7B
S1132B20821D13431B780400DBB2002B0FD0012B52
S1132B3007D1FFF7D9FF084B08341C432378D8404A
S1132B4010BD0020022BFBD1044B1868F8E70448A1
S1132B50F6E7C04600000811000090103C02002077
S1132B60006CDC020B4B821D13431B78DBB2012B80
S1132B7006D0181E0CD00320022B09D0052007E034
S1132B80802301305B0518430078434258410130EB
S1132B907047C0460000081102009C2318325B05F0
S1132BA0134380221A700022064B03431A70064A0C
S1132BB0063002431078C0B20028FBD1034B0B60EF
S1132BC07047C0460000081300000811006CDC02C6
S1132BD0F8B504000D0017001E00FFF7C3FF01281D
S1132BE023D1002D25D08023621C5B0513431D7067
S1132BF0842302225B0523431A702200104B0832FF
S1132C0013437A00D2B21A7040220E4B23431A7037
S1132C100D4B06341C432378012BFCD1002D0DD120
S1132C200A4B3B4100203360F8BD0228DBD1012D63
S1132C30D9D131002000FFF7AFFFD4E7044BF0E710
S1132C4000009010000008130000081180841E008A
S1132C5000127A000A4A10B514680123002C0CD023
S1132C608024084B03431C70074B06301843037839
S1132C70022BFCD113680B600023180010BDC04662
S1132C803C02002000000813000008119C23C90125
S1132C905B051843C9B201707047942349015B0571
S1132CA01843C9B20170704770B506680C00300053
S1132CB02049FDF741FC1F4905003000FDF7C2FC27
S1132CC00E00E12130000901FDF736FCE121E0802E
S1132CD009013000FDF7B6FC0E003C213000FDF781
S1132CE02BFC3C2120813000FDF7ACFC6E22A1724C
S1132CF00321114BFF322380238895420AD80F49C0
S1132D009B0700D00E490123CA5CAA420CD36380FE
S1132D10A58070BD01339BB223800B40AD1A5A428B
S1132D205A416E32FF32E7E70133AD1A0D2BEBD176
S1132D30EEE7C04680510100B207000050370000A2
S1132D40783700000188114A03008A1830B5002042
S1132D50812A17D85A88541E0B2C13D89C88651EB8
S1132D601E2D0FD8DD88172D0CD81D893B2D09D8B1
S1132D709B7A3B2B06D88B0705D0054B9B5CA34263
S1132D804041C0B230BD034BF8E7C0464EF8FFFFE8
S1132D90783700005037000070B5134D83880288DF
S1132DA05B196E25FF35554344885B1995085B19FB
S1132DB00E4D6600755B5B19920710D00B600A68B4
S1132DC00B4BC4885343827A00899B18E122120179
S1132DD062439B183C2242439B180B6070BD022C3B
S1132DE0ECD8013BEAE7C0464A05F5FF5E37000030
S1132DF0805101008023084A1B0212689A420AD1BA
S1132E000300A0201033400518430368002B02D1AF
S1132E100133FF33036070473C020020010080222D
S1132E2010B5002301245205103111430C600B60CE
S1132E3090214360490504601C3001430B608821E4
S1132E40490501430B6084214905014310430B608C
S1132E50036010BD0200902314325B05134300226B
S1132E601A604260103201601A60704703680B6098
S1132E7070470000104B820070B5D55880220400C2
S1132E800E4B92051A602800FFF7C8FF2800FFF7D1
S1132E90B1FF0B4B1F261A5D01231800094932406C
S1132EA0095DC025314090408B40074A6D00505168
S1132EB053511060136070BD883700003C80845EFD
S1132EC08C3700008D37000000E100E0F7B50027E3
S1132ED0114B8000C65808000D000197FFF732FF20
S1132EE00400B84216D001A92800FFF755FF3800A6
S1132EF0FFF79AF9010080200002814206D0FDF715
S1132F001BFB01000198FDF717FB019001993000AC
S1132F10FFF7A0FF2000FEBD88370000F7B50025AD
S1132F20124B8000C4580E00200001A90195FFF740
S1132F309DFF2800FFF778F90500802000028542F4
S1132F400ED00B4B290004341C43FDF7F5FA276817
S1132F50019C29004443B8B2FDF7EEFA2418019409
S1132F60310001A8FFF7A0FEF7BDC0468837000076
S1132F7000007810F0B50026184B800085B0C458C6
S1132F8008000F0001920396FFF7DCFE0500B04233
S1132F9003D10025280005B0F0BD03A93800FFF7D0
S1132FA0FBFE30002768FFF73FF901008020000294
S1132FB0814206D0FDF7C0FA01000398FDF7BCFA80
S1132FC00390039BBB42E4D3A36088231C345B05BA
S1132FD01C43019B9B002360DCE7C046883700004C
S1132FE0044B8000C25888231C325B0513438900BC
S1132FF01960704788370000054B8000C258882349
S113300014325B0513431868431E9841C0B27047DD
S1133010883700006B46E0221B78D2021B04134061
S113302009071943014BC0180160704744100000A0
S1133030084B8200D258902310B503325B0513432A
S11330401B78002B02D000F0EFF810BD00F054F90B
S1133050FBE7C046903700000C4B0D4A9C218000D2
S1133060C3588258002003324905114310B5187122
S11330700870942149050A4310701A7F824203D0D4
S113308020331800FEF7BFFE10BDC04644020020E6
S113309090370000F7B50C0006001B4B3022870068
S11330A000212000FD5800F018FB3000FFF7C8F89D
S11330B0FFF788F82060280000F058FA200000216B
S11330C02030FEF799FEEB1C01939023EA1C5B056C
S11330D01343102228001A70032100F087FA2800F5
S11330E0002100F0A8FA094BFC50094B9A5D1F23FC
S11330F01A401E3B9340074A13609823019A5B05CC
S1133100134340221A70F7BD903700004402002098
S11331109437000000E100E00A4B800070B5C65807
S1133120094B0C00C358150030001A68096800F0F8
S113313024FA2860A37930006279217900F068FAD2
S113314070BDC0469037000044020020F7B51E4A07
S113315083009C58060022790420002A16D11B4AB9
S11331609D58002903D001AA3000FFF7D5FF98230A
S113317000214020EA1C5B0513431970187027696D
S11331808F4204D13000FFF767FF0020FEBD01230A
S1133190237194235B05A1612B431B780720002B2B
S11331A0F4D0A368191E02D019780133A360A97161
S11331B02369013B2361A3690133A3619C235B055C
S11331C01A4380231370E0E7440200209037000084
S11331D0F8B5134F134C85002C59ED590127069E61
S11331E02777A2602661E3606661FFF7AFFF061EE2
S11331F014D1200007992030FEF746FE0328F8D0AA
S113320000280BD09C220021EB1C52051A4321718B
S11332101170942203265205134319703000F8BD2F
S1133220903700004402002010B51E4B8200D35892
S11332301979002934D01C4951585A69002A11D0EF
S11332409C2252050A431278002A0BD08A79DC6842
S1133250D2B2002C03D02270DA680132DA605A69E3
S1133260013A5A611A69002A12D0942252050A437B
S11332701278002A0CD09A68141E02D014780132F5
S11332809A608C711A69013A1A619A6901329A61D9
S11332901A69002A04D15B69002B01D1FFF7DCFE17
S11332A010BDC0464402002090370000104A800040
S11332B0815800220F4B10B5C3580331581CC277F4
S11332C09C2040050843DA621A701A835A629A6293
S11332D01A6302709420400501430A701A003832C0
S11332E01278002A03D0181D0121FEF79CFD10BDA1
S11332F0903700004402002070B5254B8200D3585B
S1133300591CC97F002942D022495258D96A002940
S113331017DB9421490511430978002911D0D96993
S1133320CCB2596A002905D0DD6A002D02DD0C7883
S1133330013159629471D96A0139D962596B0131E9
S11333405963D96A002905DA9421D41C490521431B
S113335000240C70196B002911DD9C2149051143CF
S1133360097800290BD09279996AD2B2002903D046
S11333700A709A6A01329A621A6B013A1A63DA6A1B
S1133380002A04DC1B6B002B01DCFFF78FFF70BDF0
S11333904402002090370000012903D0032909D0FA
S11333A0002006E094235B0518430078431E9841EF
S11333B0C0B270478423F6E7431C0348490118430D
S11333C0C9B201707047C04600008812831C942063
S11333D0490140051843C9B201707047831C034872
S11333E089011843C9B201707047C0460000081330
S11333F0831C8C20C90040051843C9B20170704772
S1133400F7B5384EC21C164332780B7804000D0011
S1133410D2B20120072B0FD81800FDF779F8041A4F
S11334202D0E1A2D2D47304B01341C4300232370DD
S11334303378012BFCD10020FEBD0320012AFBD1EF
S1133440294B01341C43402323703378042BFCD1D3
S1133450F1E70021012B01D004230221327803205B
S11334609342E9D12000FFF7A7FF04211F4A136903
S11334708B43136130BFDEE70227BB4207D100272D
S11334800B79BB4203D049792000FFF7A7FF184B03
S113349001341C4327703378144ADBB20193019B37
S11334A001330193042311690B43E2E70421104B18
S11334B0621C1A4311706A78A11C0B431A706B7852
S11334C0002B06D1AB78002B03D0E9782000FFF75E
S11334D07DFFAB79002BDED0E9792000FFF788FF70
S11334E0D9E7C046000030100000881200ED00E06B
S11334F000001010C31C024818430078C0B2704783
S113350000003010012314308B40012A04D18022A2
S113351012051043036070478022D2041043DB433A
S1133520F8E701238B40002A01D043607047836091
S1133530FCE79422811C52050A4312780223012AD3
S11335400BD18023DB040B43CE321A70802220215E
S1133550D200033003780B4001D118007047013AC0
S1133560002A01D0C046F5E70923F6E70423C37017
S113357000238370437003717047F0B5130B89B057
S11335800126039308230124764202939B19079092
S1133590049105920193631E06930227002501E01E
S11335A0002E15D0390005986143FCF7C5FF049B34
S11335B0834207D31B1A9E4204D91E00069B039024
S11335C00295019301357F00092DE9D1082C09D119
S11335D0019B029A1B0113430398079ADBB25370B1
S11335E009B0F0BD0134002ED5D1F1E7842310B524
S11335F00224C21C5B0513434A0022401A70902324
S113360000195B0518431023C9001940017010BD4F
S113361010B58C2403306405C9000443C9B2217079
S11336208821920049050143D2B20A7080225205D2
S11336301043037010BD8023012202305B05034355
S11336400A401A708C235B0518430823890019402B
S113365001707047084B10B50400002B02D0002104
S113366000E000BF054B1868836A002B00D0984720
S1133670200000F043F8C04600000000B03700000E
S113368070B500260C4D0D4C641BA410A64209D144
S1133690002600F08FF80A4D0A4C641BA410A642C1
S11336A005D170BDB300EB5898470136EEE7B3007F
S11336B0EB5898470136F2E7D4370000D4370000BE
S11336C0D4370000D8370000002310B59A4200D147
S11336D010BDCC5CC4540133F8E7030012189342C4
S11336E000D1704719700133F9E703000A780131FA
S11336F01A700133002AF9D170470000FEE7C04672
S11337000A0A0A0D426F6F74696E672057617270FE
S11337102C20696E20332E2E2E2000322E2E2E20A9
S113372000312E2E2E0A0D005465726D696E616C87
S11337300052545400534547474552003130333406
S1133740002B32312E3200898A00000000600640CE
S1133750001F1D1F1E1F1E1F1F1E1F1E1F000000F7
S113376000001F003B005A0078009700B500D40009
S1133770F300110130014E01001F1C1F1E1F1E1FEC
S11337801F1E1F1E1F00000000D003401415000060
S1133790006007400A0000000050064000F00F409F
S11337A040F00F400090044000A004401E1F0000A1
S11337B030FFFF1FF8B5C046F8BC08BC9E467047F2
S10F37C0F8B5C046F8BC08BC9E46704733
S10B37CC8CCCFF7F010000001A
S10737D439040000B0
S10737D811040000D4
S11337DC04FEFF1F5106000003000000000000005F
S11337EC01000000010000000101000001010000C3
S11337FCFFFFFFFF000000000000000001000000BC
S113380C01000000010000000100000001000000A4
S113381C020000000100000001000000050000008F
S113382C010000000100000008000000010000007D
S113383C010000000C000000010000000100000069
S113384C000100000100000001000000050100005F
S113385C010000000100000006010000010000004E
S113386C010000000701000001000000010000003D
S113387C0A01000001000000010000000B0100001F
S113388C01000000010000000D0100000100000017
S113389C0100000002010000010000000100000012
S11338AC03010000010000000100000004010000FD
S11338BC01000000010000000600000001000000EF
S11338CC01000000070000000100000001000000DE
S11338DC090000000100000001000000FFFFFFFFD1
S11338EC00000000000000000101000000000000C6
S11338FC00010000000000000000010000010000B5
S113390C00000000000000000000000000000000A7
S113391C0000000000000000000000000000000097
S113392C0000000000000000000000000000000087
S113393C0000000000000000000000000000000077
S113394C0000000000000000000000000000000067
S113395C0000000000000000000000000000000057
S90304D127
